:100000000C94F4010C941C020C941C020C941C0221
:100010000C941C020C941C020C941C020C941C02E8
:100020000C941C020C941C020C941C020C941C02D8
:100030000C941C020C941C020C941C020C941C02C8
:100040000C94A31E0C941C020C94711E0C944B1E59
:100050000C941C020C941C020C941C020C941C02A8
:100060000C941C020C941C0207634236B79BD8A761
:100070001A39685618AEBAAB558C1D3CB7CC5763CD
:10008000BD6DEDFD753EF6177231BF000000803F7B
:1000900008000000BE922449123EABAAAA2ABECD97
:1000A000CCCC4C3E00000080BEABAAAAAA3E000009
:1000B0000000BF000000803F000000000008417801
:1000C000D3BB4387D1133D190E3CC3BD4282AD2B38
:1000D0003E68EC8276BED98FE1A93E4C80EFFFBE30
:1000E00001C4FF7F3F000000000000407A10F35A77
:1000F00000A0724E18090010A5D4E80000E8764868
:10010000170000E40B54020000CA9A3B000000E113
:10011000F505000080969800000040420F000000A6
:10012000A08601000000102700000000E803000086
:1001300000006400000000000A0000000000010050
:10014000000000002C76D888DC674F0823DFC1DF71
:10015000AE59E1B1B796E5E3E453C63AE651997674
:1001600096E8E6C28426EB898C9B62ED407C6FFCAE
:10017000EFBC9C9F40F2BAA56FA5F490055A2AF7F0
:100180005C936B6CF9676DC11BFCE0E40D47FEF5F9
:1001900020E6B500D0ED902E030094357705008061
:1001A000841E080000204E0A000000C80C333333C0
:1001B000330F986E12831141EF8D2114893BE65560
:1001C00016CFFEE6DB18D1844B381BF77C1D901D43
:1001D000A4BBE424203284725E228100C9F124ECA5
:1001E000A1E53D2741542B434950434C4F53453DD6
:1001F000007072696E745F6F6666007072696E740B
:100200005F6F6E002C0041542B43495053454E44C0
:100210003D0000000000240027002A00000000002C
:10022000250028002B0000000000230026002900E4
:1002300000000008000201000003040700000000A5
:100240000000000041542B434950434C4F53453D5F
:10025000300041542B43495053454E443D302C000F
:1002600026736572766572616464726573733D00AE
:1002700026706173733D0026737369643D004745C2
:1002800054202F3F617574683D0041542B525354E4
:100290000041542B4349505345525645523D312C51
:1002A00038300041542B4349504D55583D310041A1
:1002B000542B43575341503D224C65644C696E6545
:1002C000222C223132333435363738222C312C333C
:1002D0000041542B43574D4F44453D320041542B70
:1002E00043494653520041542B43574D4F44453DDB
:1002F0000041542B43574D4F44453F0041542B433D
:1003000049504D55583D0041542B474D52004154E2
:1003100045004154001F021F021F021F021F021F3F
:10032000021F021F021F021F021F021F021F021FC5
:10033000021F021F021F021F021F021F021F021FB5
:10034000021F021F021F021F021F021F021F021FA5
:10035000021F021F029809501C8909331C1E021E2D
:10036000021E021E021E021E021E021E021E021E8D
:10037000021E021E021E0278096709580947093148
:100380001D3B09310925091D091E021E021E021E00
:10039000021E021E022200222C220041542B43572F
:1003A0004A41503D2200222C00222C22002C220007
:1003B00041542B43495053544152543D00040404CA
:1003C00004040404040202020202020303030303FE
:1003D00003010204081020408001020408102001DB
:1003E000020408102000ED1E11241FBECFEFD8E03C
:1003F000DEBFCDBF12E0A0E0B1E0E6EAFBE602C05E
:1004000005900D92A03DB107D9F725E0A0EDB2E02F
:1004100001C01D92A235B207E1F711E0C4EFD1E0AF
:1004200004C02197FE010E94C134C33FD107C9F720
:100430000E94B51F0C94D1350C94000008950895C6
:100440000895DB0114964D915C9115976D917C9107
:10045000DC01ED91FC910280F381E02D0994EF9293
:10046000FF920F931F93CF93DF938C017B01D0E01A
:10047000C0E0F701EC0FFD1F6491662361F0D80125
:10048000ED91FC910190F081E02DC8010995892B37
:1004900011F02196EECFCE01DF91CF911F910F91F8
:1004A000FF90EF900895AF92BF92CF92DF92EF92BC
:1004B000FF920F931F93CF93DF936C017B018B010E
:1004C000040F151FEB015E01AE18BF08C017D1075E
:1004D00059F06991D601ED91FC910190F081E02DE8
:1004E000C6010995892B79F7C501DF91CF911F913D
:1004F0000F91FF90EF90DF90CF90BF90AF90089555
:10050000FC01538D448D252F30E0842F90E0821B19
:10051000930B541710F0CF96089501970895FC019E
:10052000918D828D981761F0A28DAE0FBF2FB11DF6
:100530005D968C91928D9F5F9F73928F90E008954E
:100540008FEF9FEF0895FC01918D828D981731F008
:10055000828DE80FF11D858D90E008958FEF9FEF5C
:100560000895FC01918D228D892F90E0805C9F4F32
:10057000821B91098F739927089589E093E00E9467
:10058000B10221E0892B09F420E0822F089580E058
:1005900090E0892B29F00E94BD0281110C9400008B
:1005A0000895FC01A48DA80FB92FB11DA35ABF4F08
:1005B0002C91848D90E001968F739927848FA68962
:1005C000B7892C93A089B1898C91837080648C93B6
:1005D000938D848D981306C00288F389E02D808165
:1005E0008F7D80830895EF92FF920F931F93CF9397
:1005F000DF93EC0181E0888F9B8D8C8D98131AC05E
:10060000E889F989808185FF15C09FB7F894EE8944
:10061000FF896083E889F9898081837080648083A1
:100620009FBF81E090E0DF91CF911F910F91FF90EC
:10063000EF900895F62E0B8D10E00F5F1F4F0F7394
:100640001127E02E8C8D8E110CC00FB607FCFACF4F
:10065000E889F989808185FFF5CFCE010E94D1021A
:10066000F1CFEB8DEC0FFD2FF11DE35AFF4FF08220
:100670009FB7F8940B8FEA89FB8980818062CFCF86
:10068000CF93DF93EC01888D8823B9F0AA89BB89C9
:10069000E889F9898C9185FD03C0808186FD0DC0B4
:1006A0000FB607FCF7CF8C9185FFF2CF808185FFD5
:1006B000EDCFCE010E94D102E9CFDF91CF91089515
:1006C000833081F028F4813099F08230A9F00895C8
:1006D0008730A9F08830C9F08430B1F4809180006F
:1006E0008F7D03C0809180008F7780938000089574
:1006F00084B58F7784BD089584B58F7DFBCF8091BD
:10070000B0008F778093B00008958091B0008F7D06
:10071000F9CFCF93DF93282F30E0F901E05DFD4F53
:100720008491F901EF52FC4FD491F901E354FC4F4D
:10073000C491CC23A1F081110E946003EC2FF0E062
:10074000EE0FFF1FEA5DFD4FA591B491EC91ED23F3
:1007500081E090E009F480E0DF91CF91089580E09E
:1007600090E0FACF1F93CF93DF93282F30E0F90169
:10077000E05DFD4F8491F901EF52FC4FD491F901F6
:10078000E354FC4FC491CC23A9F0162F81110E9491
:100790006003EC2FF0E0EE0FFF1FE45EFD4FA5912C
:1007A000B4918FB7F894EC91111108C0D095DE2365
:1007B000DC938FBFDF91CF911F910895DE2BF8CF8F
:1007C000CF93DF9390E0FC01EF52FC4F24918354D0
:1007D0009C4FFC0184918823C9F090E0880F991FF9
:1007E000FC01EE5EFD4FA591B491FC01E45EFD4F6E
:1007F000C591D49161110DC09FB7F8948C9120954B
:1008000082238C938881282328839FBFDF91CF91F7
:100810000895623051F49FB7F8943C91822F8095EF
:1008200083238C93E8812E2BEFCF8FB7F894EC9134
:100830002E2B2C938FBFEACF1F93CF93DF93182FCC
:10084000EB0161E00E94E003209739F460E0812F22
:10085000DF91CF911F910C94B203CF3FD10511F4DA
:1008600061E0F5CFE12FF0E0E05DFD4FE491E33092
:1008700031F140F4E130B1F0E230E1F0C038D105BF
:100880007CF7E4CFE73029F1E83059F1E430B1F7F3
:1008900080918000806280938000D0938B00C09311
:1008A0008A0004C084B5806884BDC7BDDF91CF9144
:1008B0001F91089584B5806284BDC8BDF7CF809133
:1008C0008000806880938000D0938900C093880066
:1008D000EDCF8091B00080688093B000C093B300EA
:1008E000E5CF8091B00080628093B000C093B400E7
:1008F000DDCF8E3008F08E508770806480937C004E
:1009000080917A00806480937A0080917A0086FDDD
:10091000FCCF809178009091790008953FB7F894CA
:100920008091D5029091D602A091D702B091D802C1
:1009300026B5A89B05C02F3F19F00196A11DB11D3A
:100940003FBFBA2FA92F982F8827BC01CD01620F76
:10095000711D811D911D42E0660F771F881F991F31
:100960004A95D1F708958F929F92AF92BF92CF92FE
:10097000DF92EF92FF926B017C010E948E044B018B
:100980005C01C114D104E104F104B9F00E948E04A9
:10099000681979098A099B09683E734081059105A8
:1009A00080F321E0C21AD108E108F10888EE880E30
:1009B00083E0981EA11CB11CE4CFFF90EF90DF9064
:1009C000CF90BF90AF909F908F9008952FB7F894DD
:1009D0006091D1027091D2028091D3029091D402A1
:1009E0002FBF0895CF92DF92EF92FF920F931F9344
:1009F0000E94E6040091050310910603209107036D
:100A0000309108036B017C01C01AD10AE20AF30A93
:100A100097018601083E134021053105C0F060931F
:100A200005037093060380930703909308038DE0FA
:100A30000E94890361E0892B09F060E08DE01F913D
:100A40000F91FF90EF90DF90CF900C94B2031F9125
:100A50000F91FF90EF90DF90CF9008950F931F9329
:100A60000E94E604609311037093120380931303B2
:100A70009093140389E093E00E948F0297FF1DC0BA
:100A80000E94E604009111031091120320911303B8
:100A900030911403601B710B820B930B00910D03BB
:100AA00010910E0320910F0330911003601771070E
:100AB00082079307F8F28FEF9FEF1F910F91089530
:100AC0008F929F92AF92BF92CF92DF92EF92FF925E
:100AD000CF93DC011796CC91179750E061115C2FF2
:100AE00018962C91189730E0220F331F2A5D3D4F46
:100AF00060E070E0CB01F901E590F490F7014081EE
:100B00004C23451315C04B015C01FFEF8F1A9F0A60
:100B1000AF0ABF0A1D96CD90DD90ED90FC905097E6
:100B20006C157D058E059F0568F060E070E0CB01D7
:100B3000CF91FF90EF90DF90CF90BF90AF909F90BC
:100B40008F900895C501B401D6CF8F929F92AF9236
:100B5000BF92CF92DF92EF92FF920F931F93CF93AA
:100B6000DF93CDB7DEB7C054D1400FB6F894DEBFE7
:100B70000FBECDBF8C010E94E604F801C184D2846F
:100B8000E384F4849B01AC012C193D094E095F09F3
:100B900069017A0130EDC31637E0D306E104F104B0
:100BA000A8F48189C05CDE4F0FB6F894DEBF0FBE9B
:100BB000CDBFDF91CF911F910F91FF90EF90DF900C
:100BC000CF90BF90AF909F908F900895618772876C
:100BD000838794871482138212821182108261E0CB
:100BE00085810E94B2036AEF70E080E090E00E948D
:100BF000B30461E0F80185810E94E00360E0F80140
:100C000085810E94B20364E170E080E090E00E9480
:100C1000B304F89461E0F80185810E94B2038BE986
:100C200090E00197F1F762E0F80185810E94E0030E
:100C300083E290E00197F1F760E0C8010E9460054F
:100C4000672B682B692B29F4F801118A789480E0CE
:100C5000A9CF61E0C8010E946005672B682B692B52
:100C600099F39E012F5F3F4F79015E013FEBA31A7D
:100C70003EEFB30A670160E0C8010E946005F6011B
:100C8000608371838283938361E0C8010E94600561
:100C9000F6016483758386839783F8E0CF0ED11CB9
:100CA000CA14DB0441F7789430E020E0F70180803B
:100CB0009180A280B38044815581668177818114BF
:100CC0009104A104B10429F0411551056105710594
:100CD00019F4F801118ABBCFF90183E0F595E79586
:100CE0008A95E1F7E00FF11F8081880F8416950641
:100CF000A606B706F0F080832F5F3F4FF8E0EF0EB7
:100D0000F11C2832310591F6F8014481208181815E
:100D1000280F3327331F8281280F311D8381820FD3
:100D2000932F911D99274817190699F681E0818B19
:100D300039CF8160E0CFCF92DF92EF92FF921F9385
:100D4000CF93DF93EC010E94A505882339F08E81B3
:100D50008B3049F018F08551823098F060E070E0F7
:100D600080EC9FE706C06A8170E090E080E00E941E
:100D70002E30DF91CF911F91FF90EF90DF90CF90B9
:100D800008951A81612F6F7770E090E080E00E94F3
:100D9000303020E030E040E853E40E948F306B01B7
:100DA0007C016B8170E090E080E00E943030A70110
:100DB00096010E949B312DEC3CEC4CEC5DE30E94D3
:100DC0008F3017FFD6CF9058D4CFCF92DF92EF92CB
:100DD000FF92CF93DF93EC010E94A505882339F0A1
:100DE0008E818B3049F018F08551823090F060E0B0
:100DF00070E080EC9FE706C0688170E090E080E0E2
:100E00000E942E30DF91CF91FF90EF90DF90CF9036
:100E10000895688170E090E080E00E942E3020E02C
:100E200030E040E853E40E948F306B017C0169811F
:100E300070E090E080E00E943030A70196010E94AF
:100E40009B312DEC3CEC4CEC5DE30E948F30DACF13
:100E5000DC01ED91FC910280F381E02D0994DC012D
:100E6000AB5BBF4FEC9121E02E0F2C93E80FF92FD5
:100E7000F11D6583203438F0DC01ED91FC91068092
:100E8000F781E02D099581E090E008958F929F927F
:100E9000AF92BF92EF92FF920F931F93CF93DF9386
:100EA0004A015B01E901813009F056C079018BEFFD
:100EB000E81A8EEFF80AD7018D919C9189010D5F98
:100EC0001E4FF80120813181821B930B18161906E1
:100ED0000CF093950197092E000CAA0BBB0B8815FB
:100EE0009905AA05BB05C0F181149104A104B104C0
:100EF00099F1E881F98180819181DC01ED91FC918A
:100F00000084F185E02D0995892B71F3E881F98141
:100F100080819181DC01ED91FC910284F385E02DCB
:100F20000995F801408151819A012F5F3F4F332786
:100F3000D7016D917C9126173707D1F34C0F5D1FB8
:100F4000FA018383D80111963C932E93B1E08B1A5A
:100F50009108A108B108C8CFDF91CF911F910F91DF
:100F6000FF90EF90BF90AF909F908F90089590E08A
:100F700080E00895FF920F931F93CF93DF9307E5CF
:100F800011E0D0E0C0E0F801F1908F01CE010E94A5
:100F90004D31F81621F06F2DCE010E94553121966A
:100FA000C735D10581F787E591E0DF91CF911F919A
:100FB0000F91FF900895909157018091000198132F
:100FC0004CC09091580180910101981346C09091B6
:100FD000590180910201981340C020915A0130912B
:100FE0005B01809103019091040128173907A9F54D
:100FF00090915C018091050198132FC020915D01B3
:1010000030915E0180910601909107012817390700
:1010100021F569E071E080E691E00E949835892B26
:10102000E1F46AE271E081E891E00E949835892B51
:10103000A1F46AE371E081E991E00E949835892B7F
:1010400061F465E471E08CE991E00E94983521E05B
:10105000892B09F420E0822F089521E0FCCFFC01C8
:1010600024813581232B31F421E0FB01672B49F4E6
:10107000822F0895808191816115710539F421E0F5
:10108000FC0180818823A1F320E0F2CF0E949835F3
:1010900021E0892B69F3F8CFFB0101900020E9F7EB
:1010A0003197AF01461B570BDC01ED91FC9102809B
:1010B000F381E02D09948F929F92AF92BF92EF92AD
:1010C000FF920F931F93CF93DF93CDB7DEB7A19716
:1010D0000FB6F894DEBF0FBECDBF7C01FA01CB0185
:1010E00019A2223008F42AE08E010F5D1F4F822ED4
:1010F000912CB12CA12CBF01A50194010E949F3419
:10110000F901CA016A300CF5605DD8016E938D015A
:10111000232B242B252B79F790E080E0109721F0EA
:10112000BD01C7010E944C08A1960FB6F894DEBF1E
:101130000FBECDBFDF91CF911F910F91FF90EF9028
:10114000BF90AF909F908F900895695CDECFCF9253
:10115000DF92EF92FF92CF93DF936B017C016DE200
:1011600082EE93E00E942F07EC0144275527BA0135
:101170004C195D096E097F092AE082EE93E00E9416
:101180005B088C0F9D1FDF91CF91FF90EF90DF9058
:10119000CF90089562EB72E00C944C080F931F936C
:1011A000CF93DF93EC012AE00E945B088C01CE0113
:1011B0000E94CA08800F911FDF91CF911F910F915C
:1011C00008950F931F93CF93DF93EC01462F50E0C8
:1011D00070E060E02AE00E945B088C01CE010E9472
:1011E000CA08800F911FDF91CF911F910F91089531
:1011F0000F931F93CF93DF93EC010E942F028C017A
:10120000CE010E94CA08800F911FDF91CF911F91DC
:101210000F910895DC01ED91FC911197309761F0E9
:1012200012962D913C911397E217F30728F4019041
:101230000020E9F7ED93FC930895FB0180819181F3
:101240000E944B2D8093AD010895FB018081918117
:101250000E944B2D21E0892B09F420E020935F01AF
:101260000895FB01808191810E944B2D90935E0136
:1012700080935D010895FB01808191810E944B2D37
:1012800021E0892B09F420E020935C010895FB0103
:10129000808191810E944B2D21E0892B09F420E06F
:1012A0002093590181E08093FB028093F702089517
:1012B000FB01808191810E944B2D90935B01809373
:1012C0005A0181E08093FB028093F7020895FB01AD
:1012D000808191810E944B2D21E0892B09F420E02F
:1012E0002093F20281E08093FB028093F70208953D
:1012F000FB01808191810E944B2D21E0892B09F413
:1013000020E02093F10281E08093FB028093F702BA
:101310000895FB01808191810E944B2D21E0892B52
:1013200009F420E02093FA0281E08093F702089507
:10133000FB01808191810E944B2D21E0892B09F4D2
:1013400020E02093FE0281E08093FB020895FC01DF
:1013500080819181009739F0228133818217930730
:1013600010F40C944B2D90E080E00895FC018081F6
:101370009181009711F00C94692D60E070E0CB0131
:101380000895CF939C01862F70E060E02115310510
:1013900051F16FEF70E02436310529F1C82FB90102
:1013A000072E000C880B990B0E94303020E030E0B3
:1013B0004CE852E40E949B3126E636E64CE852E4C3
:1013C0000E9407329B01AC0160E070E080E291E492
:1013D0000E94B43220E030E040E151E40E949A31B2
:1013E0000E9479328C2FCF910C941C044F925F9203
:1013F0006F927F928F929F92AF92BF92CF92DF9225
:10140000EF92FF92CF93DF93CDB7DEB728970FB659
:10141000F894DEBF0FBECDBF49015A0126E636E67D
:1014200046EE5FE30E948F3020E030E040E052E47F
:101430000E949B316B017C0120E030E048E852E4DF
:101440000E949A312AE939E949E95FE30E948F3025
:101450002B013C0120E030E044E752E4C701B60133
:101460000E949B319B01AC01C301B2010E949B31E0
:101470002B013C0122E133E840EC5DE3C501B401FE
:101480000E948F309B01AC01C301B2010E949B31CD
:1014900020E030E040E05FE30E948F302B013C0110
:1014A00020E030E04EE952E40E94AF3218160CF012
:1014B00023C1A7019601C701B6010E948F302B01FD
:1014C0003C01A5019401C501B4010E948F306D83D8
:1014D0007E838F83988721E133E243E050E4C701A4
:1014E000B6010E948F3029E134E849E252E40E94BB
:1014F0009A3169837A838B839C8326E13BE442E2C1
:1015000051E4C501B4010E948F309B01AC01698197
:101510007A818B819C810E949B3169837A838B8342
:101520009C8328E436E246E65EEBC701B6010E94E2
:101530008F30A50194010E948F309B01AC0169811D
:101540007A818B819C810E949B3169837A838B8312
:101550009C8320EE3FE040EE5BEBC301B2010E94B2
:101560008F309B01AC0169817A818B819C810E94C3
:101570009B3169837A838B839C8328EF37E840E62D
:101580005DEB6D817E818F8198850E948F309B01FC
:10159000AC0169817A818B819C810E949B31698336
:1015A0007A838B839C832CEA3DE041EA5AE3C301B2
:1015B000B2010E948F30A50194010E948F309B01DF
:1015C000AC0169817A818B819C810E949B31698306
:1015D0007A838B839C8328EC3FE84FE55AE3C7016D
:1015E000B6010E948F302D813E814F8158850E9427
:1015F0008F309B01AC0169817A818B819C810E9433
:101600009B3169837A838B839C8321EF3BE845E0A0
:1016100056EBC301B2010E948F302D813E814F8174
:1016200058850E948F309B01AC0169817A818B8142
:101630009C810E949B312B013C0120E030E040E581
:1016400051E4C501B4010E94293087FF81C020E028
:1016500030E040EA52E4C701B6010E94AF3287FD94
:1016600077C020E030E040EE52E4C701B6010E94AE
:10167000293018160CF4B6C0A501940160E070E0A2
:1016800080E591E40E949A3120E030E040E85EE39A
:101690000E948F304B015C0120E030E04EEB52E4C1
:1016A000C701B6010E949A316B017C0120E030E055
:1016B000A9010E94AF3218160CF041C0A701960193
:1016C00060E070E088E891E40E949A312EE33DEEFC
:1016D00040E75DE30E948F300E940A339B01AC011A
:1016E000C501B4010E948F309B01AC01C301B2015E
:1016F0000E949A312B013C0120E030E040E052E4AE
:10170000C301B2010E949A3126E838E34EE05FE35C
:101710000E948F3028960FB6F894DEBF0FBECDBF63
:10172000DF91CF91FF90EF90DF90CF90BF90AF907F
:101730009F908F907F906F905F904F90089520E0E2
:1017400030E048E851E4C701B6010E949B31BECFAA
:1017500020E030E04AEA52E4C501B4010E94AF3211
:10176000181654F620E030E040EA52E4C701B60112
:101770000E94AF3287FDC0CF20E030E04EEA52E455
:10178000C701B6010E94293018160CF4B5CF20E02D
:1017900030E04AEA52E4C501B4010E949A312DECCE
:1017A0003CEC4CEC5DE30E948F304B015C01A701E7
:1017B000960160E070E08EEA92E40E949A312DEC8E
:1017C0003CEC4CE45EE30E948F309B01AC01C50110
:1017D000B4010E948F309B01AC01C301B2010E9491
:1017E0009B3188CF20E030E04AEA52E4C501B401E1
:1017F0000E94AF3218160CF4BFCF7ECFCF93DF9389
:10180000DC0114962D913C911597232B79F0FB0167
:10181000CD91DC9160817181CE010E94B735009736
:1018200029F08C1B9D0BDF91CF9108958FEF9FEFD7
:10183000FACFCF93DF93FC01248135814217530700
:1018400088F4C081D181062E000C770BCE01840F65
:10185000951F0E948D35009729F08C1B9D0BDF9101
:10186000CF9108958FEF9FEFFACF0F931F93CF93F0
:10187000DF938C01EB01FC01808191810097E1F005
:101880006881798161157105A9F0428153812C81AC
:101890003D814217530770F00E94A1358C819D81D4
:1018A000F801958384831D821C82DF91CF911F9163
:1018B0000F9108950E94C22C88819981F80191832B
:1018C00080838A819B81938382838C819D81958390
:1018D0008483198218821B821A82E5CFCF93DF930B
:1018E000EC0188819981009711F00E94C22C198225
:1018F00018821D821C821B821A82DF91CF9108956B
:10190000FC0180819181009711F00C94C22C089504
:101910000F931F93CF93DF93EC01888199810097F8
:1019200059F02A813B812617370730F081E0DF919B
:10193000CF911F910F9108958B016F5F7F4F0E9490
:10194000C734009759F0998388831B830A832C81BD
:101950003D81232B59F7FC011082E8CF80E0E7CFCF
:10196000EF92FF920F931F93CF93DF936115710551
:1019700041F480E0DF91CF911F910F91FF90EF90A4
:10198000089541155105B1F07B01EC010C811D81D9
:10199000040F151FB8010E94880C882351F3288179
:1019A00039818C819D81B701820F931F0E94A135DF
:1019B0001D830C8381E0DECFCF93DF93EC0147E002
:1019C00050E064ED71E00E94B00C811103C0CE01C3
:1019D0000E946E0CCE01DF91CF910895CF93DF93DB
:1019E000EC01FB0144815581608171810E94B00C42
:1019F000811103C0CE010E946E0CCE01DF91CF9108
:101A00000895CF93DF9300D0CDB7DEB769831A82F4
:101A100041E050E0BE016F5F7F4F0E94B00C0F901D
:101A20000F90DF91CF910895FB0144815581608132
:101A300071810C94B00CEF92FF920F931F93CF9390
:101A4000DF93EC017B018A01BA010E94880C8111AD
:101A50000BC0CE010E946E0CCE01DF91CF911F9181
:101A60000F91FF90EF9008951D830C83B70188813B
:101A700099810E94A135F0CFFB0101900020E9F788
:101A80003197AF01461B570B0C941B0DCF93DF937F
:101A9000EC01FB018617970749F0608171816115A0
:101AA000710541F0448155810E941B0DCE01DF91EB
:101AB000CF9108950E946E0CF9CFFC011182108223
:101AC00013821282158214820C94460DFC0111823D
:101AD000108213821282158214826115710551F0F1
:101AE000FB0101900020E9F73197AF01461B570B2E
:101AF0000C941B0D0895AF92BF92CF92DF92EF929C
:101B0000FF920F931F93CF93DF936C015B017A01D8
:101B100089012417350720F48F2D7901042F182F00
:101B200064EB72E0C6010E94660DD5011496CD915A
:101B3000DC91EC16FD06E0F40C171D0708F4E80133
:101B4000D501ED91FC911197EC0FFD1F10811082D2
:101B50006D917C916E0D7F1DC60161157105A1F01F
:101B60000E943C0DF50180819181C80FD91F188317
:101B7000C601DF91CF911F910F91FF90EF90DF9001
:101B8000CF90BF90AF9008950E946E0CEBCF2F9234
:101B90003F924F925F926F927F928F929F92BF92ED
:101BA000CF92DF92EF92FF920F931F93CF93DF9329
:101BB00000D000D000D0CDB7DEB78C016B016CED4A
:101BC00071E0CE0101960E94660DBE016F5F7F4FEE
:101BD000C6010E94FE0B7C01CE0101960E94800C82
:101BE0002FEFE216F206F9F4812C912CB12CF12C96
:101BF000B4018B2D9F2D26960FB6F894DEBF0FBE35
:101C0000CDBFDF91CF911F910F91FF90EF90DF90AB
:101C1000CF90BF909F908F907F906F905F904F90EC
:101C20003F902F90089585E0E80EF11CA7016AE32C
:101C3000C6010E94190C3C011C01990F440855086B
:101C4000AFEF2A163A064A065A0671F2A7016CE26D
:101C5000C6010E94190C4C01092E000CAA0BBB0BEB
:101C60008F3F2FEF9207A207B20709F446C08215F3
:101C70009305A405B5050CF040C09401A701B60179
:101C8000CE0101960E947B0DCE0101960E94B609FD
:101C9000B62ECE0101960E94800C84E08B1508F4CC
:101CA000A3CFA4014F5F5F4F9301B601CE01019610
:101CB0000E947B0DCE0101960E94B6096B017C014A
:101CC000CE0101960E94800C8B2D1C141D041E0455
:101CD0001F040CF089CFD8011296ED91FC91139757
:101CE0004601BE2C309709F483CF14962D913C9178
:101CF000A6016E2D7F2D09957BCF9301A701B6011B
:101D0000CE0101960E947B0DCE0101960E94B6097C
:101D10006B017C01CE0101960E94800C1C141D04F5
:101D20001E041F040CF060CF8FEFD5CF2F923F928F
:101D30004F925F926F927F928F929F92AF92BF92DB
:101D4000CF92DF92EF92FF920F931F93CF93DF9387
:101D500000D000D0CDB7DEB79C838B836B015A8354
:101D6000498319012701380164EB72E00E94660D76
:101D70000E94E6044B015C010E94E604681979099F
:101D80008A099B096415750586059705E8F5D6014E
:101D90008D919C91DC01ED91FC910084F185E02D09
:101DA00009951816190644F7F60180819181DC0126
:101DB000ED91FC910284F385E02D0995882339F398
:101DC000682F8B819C810E94010D69817A818B81B2
:101DD0009C810E94FE0B0196B9F4B1018B819C811C
:101DE0000E94FE0B019681F46B817C81C6010E94EA
:101DF000C70D672B682B692B51F264EB72E08B8166
:101E00009C810E943C0DC3CF8B819C810F900F90D1
:101E10000F900F90DF91CF911F910F91FF90EF9056
:101E2000DF90CF90BF90AF909F908F907F906F90FA
:101E30005F904F903F902F9008954F925F926F92D6
:101E40007F928F929F92AF92BF92CF92DF92EF924A
:101E5000FF920F931F93CF93DF93EC017B016A01F5
:101E60002801390164EB72E00E94660D0E94E604CD
:101E70004B015C010E94E604681979098A099B09F3
:101E8000641575058605970588F5D7018D919C9198
:101E9000DC01ED91FC910084F185E02D0995181687
:101EA000190644F7F70180819181DC01ED91FC91E5
:101EB0000284F385E02D0995882339F3682FCE013C
:101EC0000E94010DB601CE010E94FE0B019671F435
:101ED000BE01C7010E94C70D672B682B692BA9F2B1
:101EE00064EB72E0CE010E943C0DCFCFCE01DF91BA
:101EF000CF911F910F91FF90EF90DF90CF90BF9007
:101F0000AF909F908F907F906F905F904F900895CB
:101F10002F923F924F925F926F927F928F929F92F9
:101F2000AF92BF92CF92DF92EF92FF920F931F93E7
:101F3000CF93DF93CDB7DEB762970FB6F894DEBFCD
:101F40000FBECDBF2C013B014A011901580164EBC2
:101F500072E0CE010D960E94660DB301CE0101968E
:101F60000E945D0D97018601AE014F5F5F4FB20188
:101F7000CE0107960E941D0FBE01695F7F4FCE0103
:101F80000D960E94350CCE0107960E94800CCE0162
:101F900001960E94800CB301CE010D960E94FE0BAB
:101FA000019609F4B3C0B401CE010D960E94FE0B58
:101FB0006C01990FEE08FF08B101CE010D960E9449
:101FC000FE0B9C01092E000CAA0BBB0B4FEFC41695
:101FD000D406E406F40609F43FC08F3F9F4FAF4F8D
:101FE000BF4F09F441C0F40184819581B701A60176
:101FF000480F591F611D711DBE01635F7F4FCE01E8
:1020000001960E947B0DBE016F5F7F4FC5010E944C
:10201000350CCE0101960E94800C11E0CE010D9688
:102020000E94800C812F62960FB6F894DEBF0FBE1F
:10203000CDBFDF91CF911F910F91FF90EF90DF9077
:10204000CF90BF90AF909F908F907F906F905F9058
:102050004F903F902F9008958F3F9F4FAF4FBF4FAE
:1020600019F050E040E0C8CF62EE71E0CE01019679
:102070000E94660DBE016F5F7F4FC5010E94FE0B7F
:102080007C01CE0101960E94800C2FEFE216F20631
:10209000A1F0970150E040E0BE01635F7F4FCE01A9
:1020A00001960E947B0DBE016F5F7F4FC5010E94AC
:1020B000350CCE0101960E94800C64EE71E0CE01D9
:1020C00001960E94660DBE016F5F7F4FC5010E94A1
:1020D000FE0B7C01CE0101960E94800C4FEFE416AE
:1020E000F406A1F0970150E040E0BE01635F7F4F2E
:1020F000CE0101960E947B0DBE016F5F7F4FC5012F
:102100000E94350CCE0101960E94800CBE01635FD7
:102110007F4FC5010E94460D10E080CF8F929F92A5
:10212000AF92BF92CF92DF92EF92FF920F931F93E5
:10213000CF93DF93CDB7DEB762970FB6F894DEBFCB
:102140000FBECDBF6C017B0149015A0164EB72E007
:10215000CE010D960E94660DB701CE0101960E9438
:102160005D0D95018401AE014F5F5F4FB601CE0159
:1021700007960E941D0FBE01695F7F4FCE010D962D
:102180000E94350CCE0107960E94800CCE0101966C
:102190000E94800CB701CE010D960E94FE0B7C01BF
:1021A000CE010D960E94800C81E0EF20E09409F4AE
:1021B00080E062960FB6F894DEBF0FBECDBFDF9110
:1021C000CF911F910F91FF90EF90DF90CF90BF9034
:1021D000AF909F908F900895CF92DF92EF92FF92F1
:1021E0000F931F93CF93DF9300D000D000D0CDB7D3
:1021F000DEB78C0164EB72E0CE0101960E94660DA1
:102200000E94E6046B017C010E94E6046C197D09C2
:102210008E099F096A3071058105910570F5D80115
:102220008D919C91DC01ED91FC910084F185E02D74
:102230000995892B49F3F80180819181DC01ED91A9
:10224000FC910284F385E02D09958823E9F2682F3B
:10225000CE0101960E94010DBE016F5F7F4FC80144
:102260000E94C70D672B682B692B51F264EB72E05B
:10227000CE0101960E943C0DC3CFCE0101960E9473
:10228000800C26960FB6F894DEBF0FBECDBFDF914F
:10229000CF911F910F91FF90EF90DF90CF90089515
:1022A000CF92DF92EF92FF920F931F93CF93DF9322
:1022B000CDB7DEB7AA970FB6F894DEBF0FBECDBF7D
:1022C0008C0169017A01CE014F960E945D0D69EE85
:1022D00071E0CE0185960E94660D64EB72E0CE013E
:1022E00049960E94660DC8010E94EC1060EB73E0F5
:1022F000D8018D919C910E942F022AE041E050E08C
:1023000060E070E0F801808191810E945B086DEAD5
:1023100073E0D8018D919C910E942F02BE016B5DEC
:102320007F4FF801808191810E94210269EA73E068
:10233000D8018D919C910E942F02BE01615E7F4F5A
:10234000F801808191810E94210266EA73E0D80140
:102350008D919C910E942F02B701A601F801808106
:1023600091810E94CE086DEE71E0CE010D960E9423
:10237000660D6DEF71E0CE0107960E94660D66EE68
:1023800071E0CE0101960E94660D64EB72E0CE0111
:1023900043960E94660D0E94E6046B017C010E9438
:1023A000E6046C197D098E099F0960317742810529
:1023B000910508F04BC0D8018D919C91DC01ED9105
:1023C000FC910084F185E02D0995181619063CF75B
:1023D000F80180819181DC01ED91FC910284F3850B
:1023E000E02D0995882339F3682FCE0143960E948A
:1023F000010DBE016F5F7F4FCE0143960E94FE0B21
:10240000019621F5BE01695F7F4FCE0143960E9480
:10241000FE0B0196D9F4BE01635F7F4FCE01439658
:102420000E94FE0B019691F4BE016D5E7F4FC801C4
:102430000E94C70D672B682B692B09F4BCCF64EB96
:1024400072E0CE0143960E943C0DB5CFBE016D5E99
:102450007F4FCE0149960E94350CCE0143960E94D3
:10246000800CCE0101960E94800CCE0107960E943E
:10247000800CCE010D960E94800C66EE71E0CE01BC
:1024800007960E94660DBE01695F7F4FCE01499697
:102490000E94FE0B11E00196A9F46DEE71E0CE01F1
:1024A00001960E94660DBE016F5F7F4FCE01499677
:1024B0000E94FE0B11E0019609F410E0CE01019696
:1024C0000E94800CCE0107960E94800CCE01499696
:1024D0000E94800CCE0185960E94800CCE014F9602
:1024E0000E94800C812FAA960FB6F894DEBF0FBE13
:1024F000CDBFDF91CF911F910F91FF90EF90DF90B3
:10250000CF900895CF92DF92EF92FF920F931F9397
:10251000CF93DF93CDB7DEB7A4970FB6F894DEBFA5
:102520000FBECDBF6C018B01BA01CE0149960E944E
:102530005D0DB801CE014F960E945D0D64EB72E017
:10254000CE0143960E94660DC6010E94EC106BE915
:1025500073E0F601808191810E942F02BE01615ECD
:102560007F4FF601808191810E94210267E973E02B
:10257000F601808191810E942F02BE01675E7F4F2C
:10258000F601808191810E94210265E973E0F601E4
:10259000808191810E94F80863E072E0CE01079685
:1025A0000E94660D66EE71E0CE0101960E94660DF6
:1025B00010E1E12E17E2F12E00E010E09E01295F0C
:1025C0003F4FAE014F5F5F4FB601CE010D960E94A7
:1025D000960EBE01635F7F4FCE0143960E94350C7D
:1025E000CE010D960E94800CCE0101960E94800CB7
:1025F000CE0107960E94800C66EE71E0CE01019636
:102600000E94660DBE016F5F7F4FCE0143960E9410
:10261000FE0B6C01CE0101960E94800CCE01439608
:102620000E94800CCE014F960E94800CCE014996EC
:102630000E94800C81E0CD20C09409F480E0A49633
:102640000FB6F894DEBF0FBECDBFDF91CF911F91C3
:102650000F91FF90EF90DF90CF900895CF92DF928F
:10266000EF92FF920F931F93CF93DF93CDB7DEB717
:1026700068970FB6F894DEBF0FBECDBFFC01128283
:10268000EB5FFE4F11821082329711821082FC01A3
:10269000C080D18064EB72E0CE0143960E94660D4B
:1026A000C6010E94EC1064EE71E0F6018081918118
:1026B0000E942F0261E0F601808191810E94E10871
:1026C00068E072E0CE0107960E94660D66EE71E04A
:1026D000CE0101960E94660D18E8E12E13E1F12E5D
:1026E00000E010E09E01295F3F4FAE014F5F5F4F5A
:1026F000B601CE010D960E94960EBE01635F7F4F1C
:10270000CE0143960E94350CCE010D960E94800C9E
:10271000CE0101960E94800CCE0107960E94800C8B
:1027200066EE71E0CE0107960E94660DBE01695FFC
:102730007F4FCE0143960E94FE0B019651F468E054
:1027400072E0CE0101960E94660DCE0101960E94B4
:10275000800CCE0107960E94800CCE0143960E9409
:10276000800C68960FB6F894DEBF0FBECDBFDF9128
:10277000CF911F910F91FF90EF90DF90CF90089530
:10278000EF92FF920F931F93CF93DF93EC018B0196
:10279000198218821B821A821D821C82CB010E9420
:1027A000972D7C01BC01CE010E94880C811109C0CB
:1027B000CE01DF91CF911F910F91FF90EF900C947C
:1027C0006E0CFD82EC82B80188819981DF91CF91F6
:1027D0001F910F91FF90EF900C94902D0F931F93EA
:1027E000CF93DF93EC01FB0101900020E9F78F010B
:1027F000061B170B8A819B81A801480F591F2C814A
:102800003D812417350768F028813981A801820F9E
:10281000931F0E9484354A815B81400F511F5B8367
:102820004A83DF91CF911F910F9108952F923F928C
:102830004F925F926F927F928F929F92AF92BF92D0
:10284000CF92DF92EF92FF920F931F93CF93DF937C
:10285000EC015B016A010E94E6042B013C011E01B0
:102860002DEF221A2EEF320A7E018BEFE81A8EEF3F
:10287000F80AF10180819181F70120813181821B69
:10288000930B97FD93958C159D0580F40E94E604AB
:1028900064197509860997096C3D75408105910594
:1028A00028F4888199810E94EC10E3CF360146011B
:1028B0002E0123E0420E511C8114910479F0F101A4
:1028C00080819181F70120813181821B930B97FDDB
:1028D00093950097B9F4360168187908C301DF9120
:1028E000CF911F910F91FF90EF90DF90CF90BF900D
:1028F000AF909F908F907F906F905F904F903F90A0
:102900002F900895F70100811181C0E0D1E0C01B34
:10291000D10B8C169D060CF4E4018C179D070CF46A
:10292000EC01B201600F711FAE01C5010E94843538
:102930000C0F1D1F1127F701118300838C1A9D0AAC
:10294000AC0EBD1EB9CF0F931F93CF93DF93CDB7BE
:10295000DEB762970FB6F894DEBF0FBECDBF8C0115
:10296000CB014AE0BE016F5F7F4F0E94A02DBE01E8
:102970006F5F7F4FC8010E94EE1362960FB6F89406
:10298000DEBF0FBECDBFDF91CF911F910F91089594
:10299000CF92DF92EF92FF920F931F93CF93DF932B
:1029A000CDB7DEB7C658D1090FB6F894DEBF0FBE5B
:1029B000CDBFCE010196CF57DF4F99838883C15891
:1029C000D040CD57DF4F19821882C358D04080E8DD
:1029D00090E0CB57DF4F99838883C558D04064E19E
:1029E00072E0CE018F579F4F0E94EE1361E170E0BD
:1029F000CE018F579F4F0E94A31462E170E0CE0179
:102A00008F579F4F0E94A31463E170E0CE018F5750
:102A10009F4F0E94A31464E170E0CE018F579F4F37
:102A20000E94A314CD57DF4F08811981C358D040AD
:102A300001501109CF57DF4F28813981C158D0404B
:102A4000D12CC12CF12CE12C50E040E060E188E277
:102A500094E00E948819CA57DF4F0FB6F894DEBF82
:102A60000FBECDBFDF91CF911F910F91FF90EF90DF
:102A7000DF90CF9008953F924F925F926F927F9236
:102A80008F929F92AF92BF92CF92DF92EF92FF927E
:102A90000F931F93CF93DF93CDB7DEB7A1970FB6F8
:102AA000F894DEBF0FBECDBF5C010DB71EB719A3F2
:102AB00008A360E070E0CB010E94B304D5015796F3
:102AC0008D919C915897912C0297B1F056968C91CC
:102AD00056978F5F56968C93569754962D913C91AE
:102AE0005597232B49F199249394D50156968C91AF
:102AF0005697815056968C93892DE8A1F9A10FB66F
:102B0000F894FEBF0FBEEDBFA1960FB6F894DEBFDE
:102B10000FBECDBFDF91CF911F910F91FF90EF902E
:102B2000DF90CF90BF90AF909F908F907F906F90ED
:102B30005F904F903F9008958330A8F6ED91FC91FF
:102B40008281882309F4EEC2FE0131963F01D5014E
:102B50000D911C91F801808191810E94EC10F80187
:102B6000ED5FFE4F80819181329620813181821B01
:102B7000930B97FD9395181619060CF0D3C245E0F8
:102B800050E0BE01695E7F4FD5018D919C910E94FE
:102B900016140097E1F2059709F047C0888D998DCA
:102BA000982789279827998F888FEA8CFB8CFE2499
:102BB000EF24FE24FB8EEA8E892BB9F18F898111D7
:102BC00040C00E94E604F501668377838087918781
:102BD0002789308D4A8D5B8D232B71F5288D398D9A
:102BE0002130310549F549305105D9F0483C5105AE
:102BF00019F044305105C9F4D5011E966D937D93AB
:102C00008D939C935197E1E0F0E05896FC93EE93FE
:102C1000579760E070E0CB010E94B3040E94C81493
:102C200096CF83E090E0908F878BF5018081918132
:102C30000E942E13912C59CF4530510509F087CFB2
:102C4000F4CFF50180819181F1E0EF16FF0640F0AD
:102C5000D50158961C921E9257970E942E1377CF3B
:102C60008DB69EB697012F5F3F4FEDB7FEB7E21BC3
:102C7000F30B0FB6F894FEBF0FBEEDBF0DB71EB736
:102C80000F5F1F4FA701B8010E9416148E159F05F4
:102C900009F06AC0EA8DFB8DE00FF11F10820E94DF
:102CA000E604D50116966D937D938D939C931997A9
:102CB0008F89813109F426C230F58630A9F08F3032
:102CC00009F4A9C0823029F5F5018789908D892BF7
:102CD00059F401E010E0108F078B60E070E0CB0149
:102CE0000E94B3040E94C814488D598DD12CC12C68
:102CF000F12CE12C08EC10E030E020E060E0C501B0
:102D00000E94881914C08D31F9F268F4843109F4F5
:102D100082C0D50158961C921E9257978D919C9116
:102D20000E942E1304C0893241F0873391F70FB609
:102D3000F8949EBE0FBE8DBE0ACF14968D919C91C5
:102D4000892B39F480E290E00E94262CF5019583CE
:102D50008483EA8CFB8CE00EF11E1A830983FC82CB
:102D6000EB820E151F0530F00FB6F8949EBE0FBE15
:102D70008DBE5BCF40E250E0B801D50114968D9135
:102D80009C910E94A835C3010E940A09FC01808120
:102D9000918100E510E08E159F0560F489819A818C
:102DA0000097A9F12B813C818217930780F50E943F
:102DB000692D8B01D5018D919C910E942E13F501F7
:102DC0008081918124813581FC01E95FFE4F31834F
:102DD0002083875F9E4FDC010D931C93F501108EBD
:102DE000178A0E94E604DC01CB0188589341A109AF
:102DF000B109F50182879387A487B5878683978376
:102E0000A087B18786879787A08BB18B90CF60E032
:102E100070E0CB01CECF888D998DD50155969C93CE
:102E20008E9354974A8C5B8C6801C40CD51C1D8F03
:102E30000C8FDF8ECE8E0C151D0508F0F5C0F80145
:102E4000E080F180CE014C960E940A09DC018D9150
:102E50009C918C159D0508F0E7C08C8D9D8DFC0123
:102E60002081213459F401960E944B2D3EE0332EEF
:102E7000380E069744F033243A9405C0CE014C96A0
:102E80000E94A709382EF6E7EF16F2E7FF0609F4CD
:102E9000E7C038F531E6E31632E7F30609F4C8C0B7
:102EA00044E6E41642E7F40609F478C050E7E51674
:102EB0005DE6F50609F018C18C8D9D8D8C159D057C
:102EC00008F0B2C0FC0120812134A9F501960E94CE
:102ED0004B2D2EE0F22EF80E069794F1FF24FA9473
:102EE0002FC084E6E81687E7F80609F484C096E761
:102EF000E91697E7F90609F4CAC0A1E6EA16A7E7BA
:102F0000FA0609F0F1C0CE014C960E940A09DC01D4
:102F10008D919C918C159D0508F086C061E0832DF4
:102F20000E94E003CE014C960E94A709BC01832DAC
:102F30000E941C0479C0CE014C960E94A709F82E6D
:102F4000CE014C960E940A090C8D1D8D67E172E03E
:102F5000C8010E94983560E0892B79F06AE172E03F
:102F6000C8010E949835892B39F06EE172E0C801E2
:102F70000E949835892B49F461E08F2D0E94E0036F
:102F8000CE014C960E940A0997CF62E272E0C80116
:102F90000E949835892BA1F762E0EFCF7A8A698A7F
:102FA0001C8A1B8A00E110E01E8B0D8B65E272E02B
:102FB000CE0141960E94EE13632D70E0CE01419642
:102FC0000E94A314832D0E948903BC01CE01419667
:102FD0000E94A3140B891C890150110929893A897F
:102FE000D12CC12CF12CE12C50E040E064E1C50172
:102FF0000E94881919C0CE014C960E940A09DC0172
:103000008D919C918C159D0578F461E0832D0E9433
:10301000E003CE014C960E94A70961E0892B09F4D8
:1030200060E0832D0E94B203F501158A148A7FCED9
:103030007A8A698A1C8A1B8AE0E1F0E0FE8BED8BBC
:1030400068E272E0CE0141960E94EE13632D70E0BB
:10305000CE0141960E94A314832D0E947904B5CF1E
:103060003982BFE1B31500F3E32DF0E0EE0FFF1F4F
:10307000EB5EFC4F2591349121153105A9F2E2E078
:103080002F313E0789F2C301F9010995CDCFCE0159
:103090004C960E940A098C8D9D8D9C01201B310B42
:1030A000421A530A9A8389835C824B825E824D82E4
:1030B000398AFFE1F31508F4B7CFE32DF0E0EE0F06
:1030C000FF1FEB5AFC4F259134912115310509F46E
:1030D000ABCF02E02E31300709F4A6CFB301CE0109
:1030E0004196F9010995A0CFD50154964D915C9177
:1030F000D12CC12CF12CE12C02E010E030E020E0DA
:1031000060E075CF8A8D9B8D800F911F1A83098394
:103110009C838B830817190708F009CEC3010E940E
:103120000A0905CE0E94E6042B013C01D5018D91D0
:103130009C911197FC01928057962D913C91589744
:103140002130310509F065C091100DC01E964D92D9
:103150005D926D927C92519758961C921E92579751
:103160000E942E13C2CCF50146815781608571857E
:1031700093018201041B150B260B370BB901A80123
:1031800049331AE451076105710518F0108E178A4A
:103190004FCD413157426105710590F48285938589
:1031A000A485B58593018201081B190B2A0B3B0BE3
:1031B000D901C80181319742A105B10508F493CC2A
:1031C000F50186859785A089B18993018201081B45
:1031D000190B2A0B3B0BD901C801893B9B40A10568
:1031E000B10508F480CCD12CC12CF12CE12C10E0DD
:1031F00000E030E020E050E040E066E0C5010E94E1
:103200008819D5011E964D925D926D927C925197D0
:103210006CCC232B09F067CCF50146855785608976
:10322000718993018201041B150B260B370BB90121
:10323000A801992071F0493B5B406105710508F4D4
:1032400052CC0E942E13D50158961C921E9257976D
:10325000F1CC493853416105710508F444CC0E9412
:103260002E13F50100811181F801E95FFE4F6081A5
:1032700071816115710529F2F801E75FFE4FE08069
:10328000F180E114F10409F4BCCFF801C080D180D1
:10329000CE0101960E94660D970150E040E0BE010C
:1032A0006F5F7F4FC6010E945011D80112968C9318
:1032B000CE0101960E94800CF8018280882009F4DA
:1032C000A0CF81E090E0D50153969C938E935297C6
:1032D00012962D913C91F90101900020E9F7319768
:1032E0008F01021B130BD12CC12CF12CE12C41E0DE
:1032F00050E06DE1C5010E948819F5018285938532
:10330000A485B58586879787A08BB18B982CEDCB4C
:103310002F923F924F925F926F927F928F929F92E5
:10332000AF92BF92CF92DF92EF92FF920F931F93D3
:10333000CF93DF93CDB7DEB72E970FB6F894DEBFED
:103340000FBECDBF5C016F833A0149012DB73EB777
:103350003E872D87DC01ED91FC918281882309F461
:103360006CC1862F8D7F09F4AEC1663009F4ABC104
:103370006D3109F4A8C1F5018789908D019709F095
:103380005CC1452BB9F4D50154966D907C9055974E
:103390006114710479F452968D919C915397019622
:1033A00009F40EC153969C938E935297D501529671
:1033B0006D907C908F818C50893090F5F5018681DD
:1033C0009781A085B18542855385648575854817A9
:1033D00059076A077B0710F4AC01BD011A012B01E4
:1033E000F2E42F0E311C411C511C0E94E604A20184
:1033F0009101261B370B480B590BDA01C901B7FDA8
:10340000E5C0C5010E943B150E94E604A20191019E
:10341000261B370B480B590BDA01C901B7FFF1CF57
:10342000C80105968114910411F485E090E0312CD7
:10343000212CE114F10409F01601280E391EEDB714
:10344000FEB7E219F3090FB6F894FEBF0FBEEDBF49
:103450002DB73EB72F5F3F4F3C872B873F8131838E
:10346000762467247624AB85BC8512967C926E9276
:103470001197C8018C0D9D1D9827892798271496B0
:103480009C938E9313978114910409F4A8C001159D
:10349000110509F4A4C08DB79EB70696A801B40122
:1034A0000E948435C8010596E114F10459F0C11455
:1034B000D10441F0A601B701EB85FC858E0F9F1F5B
:1034C0000E948435F12CE12CE214F30408F0C0C012
:1034D0006101CE18DF08F8E2CF16D10418F088E2B7
:1034E000C82ED12CD501ED91FC910081118196015E
:1034F00050E040E02F83388749875A87C8010E94EF
:10350000EC1066E072E0D8018D919C910E942F0230
:103510002AE041E050E060E070E0F80180819181B4
:103520000E945B0864E072E0D8018D919C910E943A
:103530002F024F81588569857A85F80180819181B4
:103540000E94CE086BE272E0CE0101960E94660DE9
:1035500028E833E140E050E0BE016F5F7F4FC801D3
:103560000E948E10982ECE0101960E94800C992008
:1035700009F44FC0C8010E94EC108B849C848E0C0F
:103580009F1C412C512C32012F81388549855A8549
:10359000421653066406750628F5D8018D919C9154
:1035A000F40161914F01DC01ED91FC910190F081FA
:1035B000E02D0995BFEF4B1A5B0A6B0A7B0AE4CF3B
:1035C00081E090E0F501938B828BF0CED501569689
:1035D0008C91811125CFC5010E943B1521CF85E03B
:1035E00090E062CF6DE272E0CE0101960E94660D1E
:1035F00020E137E240E050E0BE016F5F7F4FC8013D
:103600000E948E10182FCE0101960E94800C11117D
:1036100002C0D12CC12C60E070E0CB010E94B30449
:10362000C114D10491F4F501808191810E942E137F
:10363000D50158961C921E9257972D853E850FB640
:10364000F8943EBF0FBE2DBF1EC0EC0CFD1C3CCF3E
:10365000E214F30441F0F501108E178A8081918104
:103660000E942E13EACF0E94E604D5011A966D93AC
:103670007D938D939C931D97ED85FE850FB6F894F1
:10368000FEBF0FBEEDBF4D855E850FB6F8945EBFE1
:103690000FBE4DBF2E960FB6F894DEBF0FBECDBF46
:1036A000DF91CF911F910F91FF90EF90DF90CF901E
:1036B000BF90AF909F908F907F906F905F904F9052
:1036C0003F902F9008956114710409F0A9CE5BCE4C
:1036D000CF92DF92EF92FF920F931F93CF93DF93DE
:1036E000CDB7DEB7C658D1090FB6F894DEBF0FBE0E
:1036F000CDBF7C01162FCE010196CF57DF4F9983A6
:103700008883C158D040CD57DF4F19821882C358E3
:10371000D04080E890E0CB57DF4F99838883C5582D
:10372000D04065E372E0CE018F579F4F0E94EE13A9
:10373000B701CE018F579F4F0E94A314612F70E0F5
:10374000CE018F579F4F0E94A314CD57DF4F0881A2
:103750001981C358D04001501109CF57DF4F28813C
:103760003981C158D040D12CC12CF12CE12C50E032
:1037700040E064E188E294E00E948819CA57DF4F74
:103780000FB6F894DEBF0FBECDBFDF91CF911F9172
:103790000F91FF90EF90DF90CF900895CF92DF923E
:1037A000EF92FF920F931F93CF93DF93CDB7DEB7C6
:1037B000C658D1090FB6F894DEBF0FBECDBF7C014D
:1037C0008B01CE010196CF57DF4F99838883C15873
:1037D000D040CD57DF4F19821882C358D04080E8BF
:1037E00090E0CB57DF4F99838883C558D04065E37D
:1037F00072E0CE018F579F4F0E94EE13B701CE01AA
:103800008F579F4F0E94A314B801CE018F579F4F2F
:103810000E94A314CD57DF4F08811981C358D040AF
:1038200001501109CF57DF4F28813981C158D0404D
:10383000D12CC12CF12CE12C50E040E064E188E275
:1038400094E00E948819CA57DF4F0FB6F894DEBF84
:103850000FBECDBFDF91CF911F910F91FF90EF90E1
:10386000DF90CF900895CF938091FA02882321F0C2
:10387000809158018093EB02FB01808191810E942D
:103880004B2D80935801C1E0C093FA0261E070E0D3
:1038900082E090E00E94CE1BC093F702CF91089582
:1038A000CF938091FE02882321F08091570180936D
:1038B000F002FB01808191810E944B2D8093570182
:1038C000C1E0C093FE0261E070E090E080E00E9401
:1038D000CE1BC093FB02CF910895CF92DF92EF925F
:1038E000FF920F931F93CF93DF93CDB7DEB7C75AE5
:1038F000D1090FB6F894DEBF0FBECDBF8C016A01AF
:103900007B01CE010196CE55DF4F99838883C25A41
:10391000D040CC55DF4F19821882C45AD04080E87D
:1039200090E0CA55DF4F99838883C65AD04065E33B
:1039300072E0CE018E559F4F0E94EE13B801CE016A
:103940008E559F4F0E94A3148E010F571F4F27E0E3
:1039500045E0C701B6010E94082CB801CE018E5582
:103960009F4F0E94EE13CC55DF4F08811981C45A36
:10397000D04001501109CE55DF4F28813981C25AFC
:10398000D040D12CC12CF12CE12C50E040E064E17E
:1039900088E294E00E948819C955DF4F0FB6F89469
:1039A000DEBF0FBECDBFDF91CF911F910F91FF9072
:1039B000EF90DF90CF900895AF92BF92CF92DF92B9
:1039C000EF92FF920F931F93CF93DF93CDB7DEB7A4
:1039D0002E970FB6F894DEBF0FBECDBF5C0125E475
:1039E000A20EB11CF501C080CC2051F17C01FC017C
:1039F000048110E0CE0101969A8789871C861B8678
:103A000088E090E09E878D8765E372E0CE0109969D
:103A10000E94EE13B801CE0109960E94A314D12C86
:103A2000F5E0EF0EF11C0B851C8529853A8550E0E9
:103A300040E064E188E294E00E948819F501108278
:103A40002E960FB6F894DEBF0FBECDBFDF91CF919B
:103A50001F910F91FF90EF90DF90CF90BF90AF90AC
:103A60000895CF92DF92EF92FF920F931F93CF931F
:103A7000DF93CDB7DEB7AA970FB6F894DEBF0FBEBF
:103A8000CDBF8B01FB01E080F18068E372E0CE01E5
:103A900001960E94660DB701CE0101960E942F0883
:103AA000F82ECE0101960E94800CFF2009F4AEC0D2
:103AB00084E090E09A87898785E090E09C878B87F7
:103AC00086E090E09E878D8787E090E0988B8F87D7
:103AD00088E090E09A8B898B89E090E09C8B8B8BBF
:103AE0008AE090E09E8B8D8B8BE090E0988F8F8B9F
:103AF0008DE090E09C8F8B8F8EE090E09E8F8D8F7D
:103B00008FE090E098A38F8F80E190E09AA389A343
:103B10008091FE0290E09A8389838091570190E022
:103B20009C838B838091FA0290E09E838D838091A9
:103B3000580190E098878F838091FF029091000355
:103B40009A8F898F8091F10290E09CA38BA3809142
:103B5000F20290E09EA38DA380915A0190915B01A7
:103B600098A78FA38091590190E09AA789A78E0109
:103B70000F5F1F4FC12CD12C76016CE372E082EEF7
:103B800093E00E944C082AE0B701A60182EE93E080
:103B90000E945B086EE372E082EE93E00E944C08A4
:103BA000F801419151918F01052E000C660B770BA6
:103BB00077FF26C0CB01BA010E94A70882EE93E0EE
:103BC0000E94CA08FFEFCF1ADF0AEF0AFF0A85E159
:103BD000C816D104E104F10481F682EE93E00E945C
:103BE000DC1CAA960FB6F894DEBF0FBECDBFDF91E6
:103BF000CF911F910F91FF90EF90DF90CF9008959C
:103C00002AE082EE93E00E945B08D8CFF801E080C2
:103C1000F1806BEF71E0CE0101960E94C013B701F5
:103C2000CE0101960E942F08F82ECE0101960E9427
:103C3000800CFF2021F081E08093DA02CECFF801E2
:103C4000E080F18061EF71E0CE0101960E94C01327
:103C5000B701CE0101960E942F08F82ECE010196E1
:103C60000E94800CFF2019F01092DA02B6CF62E4B5
:103C700072E082EE93E00E944C08F8014281538189
:103C80006081718182EE93E00E94280782EE93E0CA
:103C90000E94CA08A2CF1F920F920FB60F92112452
:103CA0002F933F934F935F936F937F938F939F9344
:103CB000AF93BF93EF93FF9389E093E00E94D1020B
:103CC000FF91EF91BF91AF919F918F917F916F91F4
:103CD0005F914F913F912F910F900FBE0F901F90CA
:103CE00018951F920F920FB60F9211242F938F9356
:103CF0009F93EF93FF93E0911903F0911A03808152
:103D0000E0911F03F091200382FD1BC09081809100
:103D100022038F5F8F7320912303821741F0E0917C
:103D20002203F0E0E75FFC4F958F80932203FF9121
:103D3000EF919F918F912F910F900FBE0F901F9039
:103D400018958081F4CF1F920F920FB60F92112415
:103D50002F933F938F939F93AF93BF938091D10203
:103D60009091D202A091D302B091D4023091D002AE
:103D700023E0230F2D3758F50196A11DB11D209387
:103D8000D0028093D1029093D202A093D302B09339
:103D9000D4028091D5029091D602A091D702B09121
:103DA000D8020196A11DB11D8093D5029093D60231
:103DB000A093D702B093D802BF91AF919F918F91FA
:103DC0003F912F910F900FBE0F901F90189526E8EE
:103DD000230F0296A11DB11DD2CFCF93DF93A9E08F
:103DE000B3E013961C921E92129748EE53E060E0E7
:103DF00070E014964D935D936D937C93179788EBC9
:103E000091E011969C938E9385EC90E01D969C9387
:103E10008E931C9784EC90E01F969C938E931E9734
:103E200080EC90E051969C938E93509781EC90E0BB
:103E300053969C938E93529782EC90E055969C9368
:103E40008E93549786EC90E057969C938E9356975A
:103E500059961C9259975A961C925A975B961C92A7
:103E60005B975C961C925C97C3E4D4E0198218823D
:103E70001A82109249051092480510924705109237
:103E8000460510924B0510924A0510924D0510926E
:103E90004C05E8E2F4E0D183C083138212821582DC
:103EA0001482168217821086118612861386148653
:103EB000158616861786108A118A138A128A158A21
:103EC000148A168A108E178A128E118EE2EEF3E093
:103ED00085E18483138212828AEC91E0918380834E
:103EE00010922704C0EDD3E087E08D838BE08E83B2
:103EF000E8EDF3E0E491EF83E4ECF3E0E491E887AC
:103F000040E85EE360E070E04D875E876F87788B06
:103F1000CEEBD3E092E09D838E83E3EDF3E0E4917A
:103F2000EF83EFEBF3E0E491E8874D875E876F87DF
:103F3000788BCCEAD3E098E09D838E83E9EDF3E0C3
:103F4000E491EF83E5ECF3E0E491E8874D875E8749
:103F50006F87788BE6EAF3E0B183A0831382128245
:103F600015821482DF91CF910895CF93DF93CDB75F
:103F7000DEB7C35BD1090FB6F894DEBF0FBECDBF6D
:103F8000789484B5826084BD84B5816084BD85B534
:103F9000826085BD85B5816085BD80916E00816040
:103FA00080936E00109281008091810082608093E6
:103FB00081008091810081608093810080918000E8
:103FC0008160809380008091B10084608093B10013
:103FD0008091B00081608093B00080917A0084600D
:103FE00080937A0080917A00826080937A00809139
:103FF0007A00816080937A0080917A008068809353
:104000007A001092C10061E083E00E94E00361E069
:104010008BE00E94E00361E08DE00E94E00360E03D
:1040200085E10E94E00360E084E00E94E00362E03A
:104030008CE00E94E003B7E5EB2EB1E0FB2E10E030
:1040400000E0C8010E944D31F70181937F010F5FAD
:104050001F4F07351105A9F787E5E7E5F1E0A0E077
:10406000B1E001900D928A95E1F7E0911903F0918A
:104070001A0382E08083E0911503F0911603108209
:10408000E0911703F091180380E1808310922103DF
:10409000E0911D03F0911E0386E08083E0911B03F5
:1040A000F0911C03808180618083E0911B03F0917B
:1040B0001C03808188608083E0911B03F0911C03C6
:1040C000808180688083E0911B03F0911C038081D4
:1040D0008F7D80836AE070E080E090E00E94B3040E
:1040E0008CE00E948903892B09F011C761E08DE003
:1040F0000E94B20361ED72E089E093E00E94F8084B
:1041000068EE73E080E090E00E94B3046FEA72E032
:1041100089E093E00E94F80868EE73E080E090E0A8
:104120000E94B30463EA72E089E093E00E94F80819
:1041300068EE73E080E090E00E94B30461E972E011
:1041400089E093E00E94F80868EE73E080E090E078
:104150000E94B3048CE00E948903892B09F049C3B3
:1041600064E670E080E090E00E94B3040E94F204F4
:10417000F1CF6EE772E0CE0101960E94C013BE013E
:104180006F5F7F4FCE0186559F4F0E94FE0B10E060
:10419000019609F446C067E772E0CE018F579F4F42
:1041A0000E94C013BE016F577F4FCE0186559F4FAF
:1041B0000E94FE0B10E0019679F160E772E0CE01FB
:1041C0008E569F4F0E94C013BE016E567F4FCE0188
:1041D00086559F4F0E94FE0B10E00196C1F060E6ED
:1041E00072E0CE0188569F4F0E94C013BE016856F0
:1041F0007F4FCE0186559F4F0E94FE0B11E0019626
:1042000009F410E0CE0188569F4F0E94800CCE0129
:104210008E569F4F0E94800CCE018F579F4F0E9459
:10422000800CCE0101960E94800C112309F4BCC2BF
:10423000BE0166557F4FCE018C559F4F0E945D0D8C
:1042400050E040E06FE3CE018C559F4F0E94190C67
:1042500001967C01AC0160E2CE018C559F4F0E941B
:10426000190C9C01A701BE016C557F4FCE018256EF
:104270009F4F0E947B0D50E040E06DE3CE018256DF
:104280009F4F0E94190C7C012FEFE216F20609F4F1
:10429000A8C050E040E066E2CE0182569F4F0E94E7
:1042A000190C6C010E94E6042B013C0164EB72E0E6
:1042B000CE018E569F4F0E94660D64EB72E0CE01D8
:1042C0008F579F4F0E94660D57018FEFA81AB80AAB
:1042D000970150E040E0BE0162567F4F9FEFC91644
:1042E000D90609F4AFC1CE0101960E947B0DBE0133
:1042F0006F5F7F4FCE018E569F4F0E94350CCE01CF
:1043000001960E94800C9601A501BE0162567F4F66
:10431000CE0101960E947B0DBE016F5F7F4FCE01E3
:104320008F579F4F0E94350CCE0101960E94800C42
:10433000CE55DF4F28813981C25AD040A6014F5F48
:104340005F4FBE0162567F4FCE0101960E947B0DEA
:10435000BE016F5F7F4FCE0182569F4F0E94350C8A
:10436000CE0101960E94800C6CE472E0CE018E5664
:104370009F4F0E942F08882309F496C1CF57DF4F23
:1043800068817981C158D04080E691E00E94A135D2
:1043900050E040E06DE3CE0182569F4F0E94190C21
:1043A0007C010E94E6046419750986099709613148
:1043B00077428105910508F4AEC169E672E089E0B3
:1043C00093E00E944C0889E093E00E94CA08CE0165
:1043D0008F579F4F0E94800CCE018E569F4F0E9498
:1043E000800C61E772E0CE0188569F4F0E94660DF7
:1043F00060E671E0CE0101960E94660D6AE772E008
:10440000CE018F579F4F0E94660DBE016F5F7F4F99
:10441000CE018F579F4F0E94EE0C0E94DC0CBC0116
:10442000CE0188569F4F0E94140DCE018F579F4F8B
:104430000E94800CCE0101960E94800C61E871E020
:10444000CE0101960E94660D65E872E0CE018F579D
:104450009F4F0E94660DBE016F5F7F4FCE018F5749
:104460009F4F0E94EE0C0E94DC0CBC01CE018856CE
:104470009F4F0E94140DCE018F579F4F0E94800CBA
:10448000CE0101960E94800C61E971E0CE01019697
:104490000E94660D60E972E0CE018F579F4F0E9427
:1044A000660DBE016F5F7F4FCE018F579F4F0E94F9
:1044B000EE0C0E94DC0CBC01CE0188569F4F0E947E
:1044C000140DCE018F579F4F0E94800CCE01019694
:1044D0000E94800C6CE971E0CE0101960E94660D8D
:1044E0006BE972E0CE018F579F4F0E94660DBE01AF
:1044F0006F5F7F4FCE018F579F4F0E94EE0C0E943F
:10450000DC0CBC01CE0188569F4F0E94140DCE01D9
:104510008F579F4F0E94800CCE0101960E94800C05
:1045200048E050E068EA72E0CE0188569F4F0E9452
:10453000B00C0E94E6040E94E6046B017C01912C01
:10454000C456DF4F88819981CC59D040CF57DF4F77
:1045500019821882C158D040CD57DF4F1982188276
:10456000C358D040CB57DF4F19821882C558D0406E
:104570004AE0BE016F5F7F4F0E94C82DBE016F5F92
:104580007F4FCE018F579F4F0E943C0D62E572E036
:10459000CE018E569F4F0E94C013BE016E567F4FB4
:1045A000CE0101960E945D0DBE016F577F4FCE0177
:1045B00001960E94EE0CBC0189E093E00E9421026A
:1045C00089E093E00E94CA08CE0101960E94800C07
:1045D000CE018E569F4F0E94800CCE018F579F4F69
:1045E0000E94800C64EF71E080E090E00E94B304D0
:1045F000BE0168567F4F89E093E00E94210268EE79
:1046000073E080E090E00E94B30489E093E00E94B0
:10461000B102892B09F48AC064EB72E0CE018F5796
:104620009F4F0E94660D0E942E0597FDC3C08A30E1
:10463000910509F4BFC0682FCE018F579F4F0E948C
:10464000010DF1CFCE0101960E947B0DBE016F5F7F
:104650007F4FCE018E569F4F0E94350CCE010196A2
:104660000E94800CCE55DF4F28813981C25AD0403C
:10467000A501BE0162567F4FCE0101960E947B0DBF
:10468000BE016F5F7F4FCE018F579F4F0E94350C49
:10469000CE0101960E94800C64EB72E0CE0182563E
:1046A0009F4F0E943C0D60CE61E572E0CE018E56B8
:1046B0009F4F0E942F08882349F0CF57DF4F688112
:1046C0007981C158D04081E891E060CE66E572E022
:1046D000CE018E569F4F0E942F08882349F0CF5756
:1046E000DF4F68817981C158D04081E991E04ECE99
:1046F0006BE572E0CE018E569F4F0E942F088823F3
:1047000009F446CECF57DF4F68817981C158D04038
:104710008CE991E03BCECE018F579F4F0E94800CD9
:10472000CE018E569F4F0E94800CAECD0E94E604B3
:104730006C197D098E099F096031774281059105C9
:1047400008F46ACF992009F4FBCE0E94E6046C19A4
:104750007D098E099F09603177428105910508F432
:10476000EFCE64E472E089E093E00E942F0268EEED
:1047700073E080E090E00E94B3040093D90268E8FF
:1047800073E180E090E00E94B304CE0188569F4F11
:104790000E94800CCE0182569F4F0E94800CCE0159
:1047A0008C559F4F0E94800CCE0186559F4F0E94D2
:1047B000800C2EC06DE272E0CE0101960E94660D63
:1047C000BE016F5F7F4FCE018F579F4F0E94FE0B40
:1047D0005C01CE0101960E94800CAB20A09409F0F0
:1047E000912ECE018F579F4F0E94800C0ECF0E94BA
:1047F000F2048091D902811127C089E093E00E94E0
:10480000B102892BA1F361E08DE00E94B20301E0C7
:1048100089E093E00E94B102892B49F364EB72E0D6
:10482000CE0186559F4F0E94660D0E942E0597FD72
:10483000A0CC8A30910509F49CCC682FCE01865516
:104840009F4F0E94010DF1CF0E94BA0787E5E7E56F
:10485000F1E0A0E0B1E001900D928A95E1F76AE8FD
:1048600072E089E093E00E94F80860ED77E080E074
:1048700090E00E94B30403E010E061E08DE00E944C
:10488000B20364EF71E080E090E00E94B30460E066
:104890008DE00E94B20364EF71E080E090E00E943E
:1048A000B3040150110949F70C9400001092F00272
:1048B0001092EB0262E08091D5030E94E00340E396
:1048C000C42E48EFD42EEE24EA94FE2CC092D903D5
:1048D000D092DA03E092DB03F092DC0362E0809195
:1048E000C3030E94E003C092C703D092C803E092C2
:1048F000C903F092CA0362E08091B1030E94E00311
:10490000C092B503D092B603E092B703F092B80319
:104910000E94E604609305037093060380930703E7
:10492000909308035AE0A52EB12C88E294E00E94EF
:104930003B1580913F049091400460E0019709F09D
:1049400061E08DE00E94B2030E94E6040091010341
:10495000109102032091030330910403601B710B3B
:10496000820B930B693B7B408105910508F47CC069
:1049700030E4F32E10E000E085E10E947904080F96
:10498000191FFA94F110F8CF26E0169507952A958D
:10499000E1F7109300030093FF020E94E604609386
:1049A000010370930203809303039093040381E057
:1049B00090E08C0F9D1FCE56DF4F99838883C2599C
:1049C000D040CC56DF4F19821882C459D040E0E85D
:1049D000F0E0CA56DF4FF983E883C659D04065E35B
:1049E00072E0CE018E569F4F0E94EE136CE070E095
:1049F000CE018E569F4F0E94A3144AE0BE016F570E
:104A00007F4FC8010E94C82DBE016F577F4FCE0156
:104A10008E569F4F0E94EE13CC56DF4F08811981AE
:104A2000C459D04001501109CE56DF4F2881398139
:104A3000C259D040D12CC12CF12CE12C50E040E0E7
:104A400064E188E294E00E9488190E94DB078823D1
:104A500059F00E94BA0787E5E7E5F1E0A0E0B1E090
:104A600001900D928A95E1F784E00E948903892BD9
:104A700009F429C580915C01882309F424C5E090DC
:104A80005D01F0905E0190E4D92E10E000E085E138
:104A90000E947904080F191FDA94D110F8CF86E02C
:104AA000169507958A95E1F70E151F0508F00BC5B9
:104AB0008091FE0211E08117F1F080915F0188235F
:104AC000D1F01093FD02809157018093FC02609118
:104AD000AD0181E090E00E94681B61E070E090E031
:104AE00080E00E94CE1B8091AD018093570110930E
:104AF000FE021093FB028091FA0281111BC011E0AB
:104B00001093F902809158018093F8026091AD01F1
:104B100083E090E00E94681B61E070E082E090E03A
:104B20000E94CE1B8091AD01809358011093FA0230
:104B30001093F7021091FB02112309F44CC00E945C
:104B4000E604C090F302D090F402E090F502F090F9
:104B5000F6026C197D098E099F096F317105810577
:104B60009105C8F190915901992391F09091F20229
:104B7000992371F020915A0130915B018091FF02DD
:104B8000909100038217930708F0D5C49091F10229
:104B9000309157018091F0022091FE02381709F4FC
:104BA000CCC4222309F4CBC4831708F0D0C48F5F90
:104BB0008093F0028091F00263E070E090E00E9448
:104BC000C1090E94E6046093F3027093F40280939B
:104BD000F5029093F6020091F702002309F44CC00D
:104BE0000E94E604C090EC02D090ED02E090EE024C
:104BF000F090EF026C197D098E099F096F317105E4
:104C000081059105C8F190915901992391F09091F6
:104C1000F202992371F020915A0130915B01809149
:104C2000FF02909100038217930708F092C49091BD
:104C3000F102309158018091EB022091FA0238176D
:104C400009F489C4222309F488C4831708F08DC4A9
:104C50008F5F8093EB028091EB026BE070E090E05D
:104C60000E94C1090E94E6046093EC027093ED0279
:104C70008093EE029093EF020E94E604C090E70258
:104C8000D090E802E090E902F090EA026C197D0908
:104C90008E099F09693B7B408105910508F4A6C5F3
:104CA0001111A4C50111A2C50E94E6046093E70298
:104CB0007093E8028093E9029093EA0280ED93E01A
:104CC0000E94E5060E9480322AE0269F8001279FED
:104CD000100D112480ED93E00E949B0620E030E04F
:104CE00040E251E40E948F300E9480326B01C05537
:104CF000DF4F79836883C05BD0408EEB93E00E94E6
:104D0000E5060E948032EAE0E69F4001E79F900CB2
:104D100011248EEB93E00E949B0620E030E040E2FD
:104D200051E40E948F300E9480321B01CE54DF4F2D
:104D300079836883C25BD0408CEA93E00E94E506E9
:104D40000E948032FAE0F69F3001F79F700C112428
:104D50008CEA93E00E949B0620E030E040E251E4C0
:104D60000E948F300E9480322091E5023091E6024D
:104D70000217130781F52091E3023091E402C05538
:104D8000DF4FE881F981C05BD040E217F30719F5E6
:104D90002091E1023091E20282169306E1F4209123
:104DA000DF023091E002CE54DF4FE881F981C25B2F
:104DB000D040E217F30779F42091DD023091DE0252
:104DC0006216730641F42091DB023091DC02621717
:104DD000730709F47BC01093E6020093E502D092BA
:104DE000E402C092E3029092E2028092E1023092E9
:104DF000E0022092DF027092DE026092DD02709388
:104E0000DC026093DB02B80190E080E00E942E306B
:104E10009B01AC010E944A3381110CC0B60190E0A5
:104E200080E00E942E309B01AC010E944A3388230F
:104E300009F49DC370E060E084E090E00E94CE1B26
:104E40006091E1027091E20290E080E00E942E30D9
:104E50009B01AC010E944A3381110FC06091DF02B7
:104E60007091E00290E080E00E942E309B01AC0146
:104E70000E944A33882309F4E3C370E060E088E0CD
:104E800090E00E94CE1B6091DD027091DE0290E006
:104E900080E00E942E309B01AC010E944A338111B8
:104EA0000FC06091DB027091DC0290E080E00E9414
:104EB0002E309B01AC010E944A33882309F429C497
:104EC00070E060E08DE090E00E94CE1B8091DA02FD
:104ED000882309F48BC40E94E604AB01BC0182EE76
:104EE00093E00E94CE080E94DB07482F50E070E05C
:104EF00060E02AE082EE93E00E945B0882EE93E09D
:104F00000E94CA0882EE93E00E94DC1C6FC480E617
:104F100091E090932B0480932A040E94E604DC0124
:104F2000CB0188589341A109B10980933204909331
:104F30003304A0933404B093350480932E049093EB
:104F40002F04A0933004B0933104809336049093DF
:104F50003704A0933804B093390486EA93E0909321
:104F6000420480934104E0912804F0912904918344
:104F7000808386E497E09093A9038093A803F0933D
:104F8000AB03E093AA038091280490912904FC01CB
:104F9000E95FFE4F2CE931E031832083875F9E4F2C
:104FA00020E93FE1FC013183208364EF71E080E080
:104FB00090E00E94B3040091410410914204C801A2
:104FC0000E94EC1062E173E0F801808191810E94FF
:104FD000F80866EE71E0CE0101960E94660D28EE9B
:104FE00033E040E050E0BE016F5F7F4FC8010E9498
:104FF0008E10182FCE0101960E94800C112309F407
:1050000037C20091410410914204C8010E94EC1083
:105010006EE073E0F801808191810E942F0260E0D0
:10502000F801808191810E94E10866EE71E0CE0175
:1050300001960E94660D28EE33E040E050E0BE018C
:105040006F5F7F4FC8010E948E10182FCE0101960E
:105050000E94800C112309F40BC2A0904104B0906F
:10506000420464EB72E0CE0182569F4F0E94660DAF
:10507000C5010E94EC1068EB7BE080E090E00E94AC
:10508000B30467E073E0F501808191810E94F80824
:1050900062EE71E0CE0101960E94660D61EB72E056
:1050A000CE018F579F4F0E94660D66EE71E0CE01D4
:1050B0008E569F4F0E94660DE0E1CE2EE7E2DE2E77
:1050C000E12CF12C8E0102561F4F9E012F5F3F4FA6
:1050D000AE014F575F4FBE016E567F4FC5010E9414
:1050E000880FCE018E569F4F0E94800CCE018F57A5
:1050F0009F4F0E94800CCE0101960E94800CC090B0
:105100004104D090420464EB72E0CE0188569F4F78
:105110000E94660DC6010E94EC106CEF72E0F60171
:10512000808191810E942F0261E0F601808191814E
:105130000E94E10865EB72E0CE018F579F4F0E94FD
:10514000660D66EE71E0CE0101960E94660D18EEC6
:10515000E12E13E0F12E00E010E09E012F573F4FAB
:10516000AE014F5F5F4FB601CE018E569F4F0E943A
:10517000960EBE016E567F4FCE0188569F4F0E94FD
:10518000350CCE018E569F4F0E94800CCE010196A9
:105190000E94800CCE018F579F4F0E94800C66EEBC
:1051A00071E0CE0101960E94660DCE0101960E942B
:1051B000800CCE0188569F4F0E94800CA090410425
:1051C000B090420464EB72E0CE0188569F4F0E947B
:1051D000660DC5010E94EC1061EF72E0F50180815F
:1051E00091810E94F80862EE71E0CE018E569F4FC9
:1051F0000E94660D6AE472E0CE018F579F4F0E94B5
:10520000660D66EE71E0CE0101960E94660DA8EE75
:10521000CA2EA3E0DA2EE12CF12C8E0108561F4F86
:105220009E012E563F4FAE014F575F4FBE016F5F3D
:105230007F4FC5010E94880FD82ECE0101960E9493
:10524000800CCE018F579F4F0E94800CCE018E564E
:105250009F4F0E94800CDD2021F0C8010E94B609FA
:10526000962ECE0188569F4F0E94800CDD2009F4B7
:10527000FAC0F1E09F1277C00091410410914204FE
:1052800061E971E0CE018F579F4F0E94660D61E882
:1052900071E0CE0101960E94660DAE014F575F4F3F
:1052A000BE016F5F7F4FC8010E948212182FCE018E
:1052B00001960E94800CCE018F579F4F0E94800C58
:1052C000112309F4D0C0A0904104B090420464EBD3
:1052D00072E0CE0188569F4F0E94660DC5010E9464
:1052E000EC106DED72E0F501808191810E94F8086B
:1052F00062EE71E0CE0101960E94660D61EB72E0F4
:10530000CE018F579F4F0E94660D66EE71E0CE0171
:105310008E569F4F0E94660D68EEC62E63E0D62E15
:10532000E12CF12C8E0108561F4F9E012F5F3F4F3D
:10533000AE014F575F4FBE016E567F4FC5010E94B1
:10534000880FCE018E569F4F0E94800CCE018F5742
:105350009F4F0E94800CCE0101960E94800CC801D4
:105360000E94800C80C064EB72E0CE0188569F4F93
:105370000E94660DC5010E94EC1066EE72E0F50118
:10538000808191810E942F0261E0F50180819181ED
:105390000E94E10865EC72E0CE018F579F4F0E949A
:1053A000660D66EE71E0CE018E569F4F0E94660D2F
:1053B00018EEE12E13E0F12E00E010E09E012F57D1
:1053C0003F4FAE014E565F4FB501CE0101960E9490
:1053D000960EBE016F5F7F4FCE0188569F4F0E9491
:1053E000350CCE0101960E94800CCE018E569F4F47
:1053F0000E94800CCE018F579F4F0E94800C66EE5A
:1054000071E0CE0101960E94660DBE016F5F7F4F75
:10541000CE0188569F4F0E94FE0B0196C9F465ECA1
:1054200072E0CE018F579F4F0E94660DBE016F57ED
:105430007F4FCE0188569F4F0E94FE0BDD24D394F0
:10544000019609F4D12CCE018F579F4F0E94800CFA
:10545000CE0101960E94800CCE0188569F4F0E947B
:10546000800CD11009CFCE0182569F4F0E94800C34
:1054700080912804909129040E942E1310924004D8
:1054800010923F040E94E6046B017C0180913F046E
:1054900090914004019781F00E94E6046C197D0907
:1054A0008E099F09683273428105910528F488E2CC
:1054B00094E00E943B15EACF80913F049091400414
:1054C0000197B1F6F3C98091FD028823B9F01092DB
:1054D000FD026091FC0281E090E00E94681B70E098
:1054E00060E090E080E00E94CE1B1092FE0281E01E
:1054F0008093FB028091FC02809357018091F90216
:10550000882309F417CB1092F9026091F80283E026
:1055100090E00E94681B70E060E082E090E00E94F2
:10552000CE1B1092FA0281E08093F7028091F8027C
:1055300080935801FFCA90E02BCB211155C19923CC
:1055400009F450C1833009F44FC108F430CB8150C5
:105550002FCB90E06ECB211158C1992309F453C190
:10556000833009F452C108F473CB815072CB6FEFD2
:1055700070E084E090E00E94CE1B0091E502109163
:10558000E602C801B5010E948B3490E080E00E94E1
:105590002E306B017C016091E3027091E40290E097
:1055A00080E00E942E3020E030E040E251E40E9492
:1055B0000732A70196010E94F6096B017C01B80130
:1055C00090E080E00E942E3020E030E040E251E4A4
:1055D0000E940732AB01BC0185E090E00E946D1C87
:1055E0006091E3027091E40290E080E00E942E302E
:1055F00020E030E040E251E40E940732AB01BC0100
:1056000086E090E00E946D1CC701B6010E948032C6
:105610002AE0269FA001279F500D1124BA0190E097
:1056200080E00E942E3020E030E040E251E40E9411
:105630000732AB01BC0187E090E00E946D1C00CCFA
:105640006FEF70E088E090E00E94CE1B0091E102D5
:105650001091E202C801B5010E948B3490E080E015
:105660000E942E306B017C016091DF027091E0029C
:1056700090E080E00E942E3020E030E040E251E4F3
:105680000E940732A70196010E94F6096B017C0176
:10569000B80190E080E00E942E3020E030E040E24F
:1056A00051E40E940732AB01BC0189E090E00E9406
:1056B0006D1C6091DF027091E00290E080E00E943A
:1056C0002E3020E030E040E251E40E940732AB018E
:1056D000BC018AE090E00E946D1CC701B6010E94E7
:1056E00080322AE0269FA001279F500D1124BA0185
:1056F00090E080E00E942E3020E030E040E251E473
:105700000E940732AB01BC018BE090E00E946D1C4F
:10571000BACB6FEF70E08DE090E00E94CE1B00915D
:10572000DD021091DE02C801B5010E948B3490E0C9
:1057300080E00E942E306B017C016091DB02709151
:10574000DC0290E080E00E942E3020E030E040E279
:1057500051E40E940732A70196010E94F6096B01ED
:105760007C01B80190E080E00E942E3020E030E023
:1057700040E251E40E940732AB01BC018EE090E0B0
:105780000E946D1C6091DB027091DC0290E080E071
:105790000E942E3020E030E040E251E40E940732C7
:1057A000AB01BC018FE090E00E946D1CC701B60107
:1057B0000E9480322AE0269FA001279F500D1124CD
:1057C000BA0190E080E00E942E3020E030E040E21C
:1057D00051E40E940732AB01BC0180E190E00E94DD
:1057E0006D1C74CB8111B3CE1092FB0280E090E06F
:1057F000892B09F49AC80E94BD02882309F495C830
:105800000E94000092C88111B0CE1092F702EECF34
:10581000EF920F931F93CF93DF93E80134E047FD9E
:1058200034E1042E000C550B57FF03C051954195F0
:105830005109E32E022F242FAE010E94E22DCE014A
:10584000DF91CF911F910F91EF9008950F931F93C8
:10585000CF93DF938230910510F482E090E0E091E5
:105860005005F091510530E020E0B0E0A0E0309725
:1058700099F42115310509F44AC0281B390B24304D
:105880003105D8F58A819B816115710589F1FB018C
:1058900093838283FE0111C0408151810281138173
:1058A00048175907E0F04817590799F4109761F025
:1058B00012960C93129713961C933296CF01DF9198
:1058C000CF911F910F9108950093500510935105AA
:1058D000F4CF2115310551F04217530738F0A901D3
:1058E000DB019A01BD01DF01F801C1CFEF01F9CF62
:1058F0009093510580935005CDCFFE01E20FF31F29
:10590000819391932250310939832883D7CF2091F5
:105910004E0530914F05232B41F42091B001309179
:10592000B10130934F0520934E052091AE01309187
:10593000AF012115310541F42DB73EB74091B201B9
:105940005091B301241B350BE0914E05F0914F05AA
:10595000E217F307A0F42E1B3F0B2817390778F046
:10596000AC014E5F5F4F2417350748F04E0F5F1FA5
:1059700050934F0540934E05819391939FCFF0E054
:10598000E0E09CCFCF93DF930097E9F0FC013297E2
:1059900013821282A0915005B0915105ED0130E0C3
:1059A00020E01097A1F420813181820F931F209174
:1059B0004E0530914F052817390709F061C0F09363
:1059C0004F05E0934E05DF91CF910895EA01CE1780
:1059D000DF07E8F54A815B819E0141155105B1F76A
:1059E000E901FB83EA8349915991C40FD51FEC1754
:1059F000FD0761F4808191810296840F951FE90172
:105A000099838883828193819B838A83F0E0E0E09D
:105A100012968D919C9113970097B9F52D913C9119
:105A20001197CD010296820F931F20914E05309160
:105A30004F052817390739F6309751F5109251055F
:105A400010925005B0934F05A0934E05BCCFD38361
:105A5000C28340815181840F951FC817D90761F413
:105A60004E5F5F4F88819981480F591F5183408352
:105A70008A819B81938382832115310509F0B0CF00
:105A8000F0935105E09350059ECFFD01DC01C0CF9E
:105A900013821282D7CFFC0188279927E89421919D
:105AA0002032E9F3293010F02E30C8F32B3241F0C8
:105AB0002D3239F4689404C00E94C02D820F911DCC
:105AC000219120532A30C0F31EF4909581959F4F69
:105AD00008951F93FC0199278827BC01E894119130
